:1000000082C000009FC000009DC000009BC0000097
:1000100099C0000097C0000095C0000093C0000088
:1000200091C000008FC000008DC000008BC0000098
:1000300089C0000087C0000085C0000083C00000A8
:1000400081C000007FC00000DCC000007BC0000059
:1000500079C0000077C0000075C0000073C00000C8
:1000600071C000006FC000006DC000006BC00000D8
:1000700069C0000067C0000065C0000063C00000E8
:1000800061C000005FC000005DC0000072077B0718
:10009000880790079C07A407B107BA07C607CF07D0
:1000A000DC07E507FA0708080C0810081408180808
:1000B0001C082008240828082C0830084109460993
:1000C0004B09500955095A095F09FE0AFF0A000B3E
:1000D000020B040B060B080B084AD73B3BCE016E04
:1000E00084BCBFFDC12F3D6C74319ABD56833DDA8F
:1000F0003D00C77F11BED9E4BB4C3E916BAAAABE9E
:10010000000000803F0011241FBECFEFD0E4DEBF0F
:10011000CDBF12E0A0E0B1E0E6EAFBE100E00BBFFA
:1001200002C007900D92AC33B107D9F722E0ACE3DF
:10013000B2E001C01D92A33EB207E1F70E94AA0AF5
:100140000C94D10D5DCF9093440280934302809133
:1001500043029091440218161906CCF30895CF93E8
:10016000C82F83E090E0EFDF8C2F807F896085B916
:100170002B9820E1C202C0011124896085B92B9817
:10018000CF910895CF93DF93EC01181619062CF444
:1001900082E390E0D8DF2197D9F7DF91CF910895DE
:1001A00080EF82B98FE081B98FEF85B99BEF94B969
:1001B0009CE198B993EE97B99FE79BB98AB90895E6
:1001C00082E085BD81EF8093800083E08093810091
:1001D00081E38093B00084E08093B10010928900A5
:1001E0001092880010928B0010928A001092B40036
:1001F0008EEC86BD81E080936E0081E18093B80033
:1002000008951F920F920FB60F9211240BB60F9202
:100210002F933F934F935F938F939F93EF93FF930E
:100220009091450286B5825386BD2091430230915C
:1002300044021216130654F42091430230914402F2
:1002400021503109309344022093430240918400AD
:100250005091850020918800309189004217530702
:1002600008F09F7D409184005091850020918A0084
:1002700030918B004217530708F09F7B2091B2000A
:100280008091B400281708F09F7788B18F71892B6F
:1002900088B980917A0084FF4CC0EAE7F0E0808161
:1002A0008061808320913C028091790090E0E22F70
:1002B000F0E0EE0FFF1FEC5AFD4F918380832D304D
:1002C00049F486399105D8F0809149028160809384
:1002D000490215C02E3049F48639910580F080918D
:1002E00049028260809349020AC02F3041F4863966
:1002F000910528F080914902846080934902EAE7E1
:10030000F0E080818061808380913C028F5F80314A
:1003100018F480933C0202C010923C0280913C028F
:1003200082B9EAE7F0E080818F7380838081806CFE
:1003300080838091410290914202009711F45F9A6C
:10034000E4C08130910511F45F98DFC0803223E072
:10035000920708F08EC020914C0230914D02211579
:10036000310581F040913D0241110CC034990AC021
:10037000AC01421B530B50934D0240934C0221E0C1
:1003800020933D0220914E0230914F0221153105FC
:1003900081F040913E0241110CC005990AC0AC01A8
:1003A000421B530B50934F0240934E0221E0209387
:1003B0003E0220915002309151022115310581F009
:1003C00040913F0241110CC006990AC0AC01421B8A
:1003D000530B509351024093500221E020933F026F
:1003E00020915202309153022115310581F0409144
:1003F000400241110CC007990AC0AC01421B530BCB
:10040000509353024093520221E0209340022091E6
:100410004C0230914D02232B31F4349B04C0909355
:100420004D0280934C0220914E0230914F02232BBB
:1004300031F4059B04C090934F0280934E022091AB
:10044000500230915102232B31F4069B04C090934B
:100450005102809350022091520230915302232B7B
:1004600009F053C0079B51C09093530280935202EE
:100470004CC08032934009F048C080913D02811108
:1004800006C080E293E090934D0280934C028091ED
:100490004C0290914D029093DC028093DB0280919C
:1004A0003E02811106C080E293E090934F02809358
:1004B0004E0280914E0290914F029093DE02809303
:1004C000DD0280913F02811106C080E293E09093AB
:1004D000510280935002809150029091510290936A
:1004E000E0028093DF0280914002811106C080E229
:1004F00093E0909353028093520280915202909124
:1005000053029093E2028093E10280914102909124
:1005100042020196893E23E0920728F4909342021A
:100520008093410214C01092420210924102ECE406
:10053000F2E01182108213821282158214821782D5
:100540001682EDE3F2E01082118212821382FF9193
:10055000EF919F918F915F914F913F912F910F90CC
:100560000BBE0F900FBE0F901F90189510923C027B
:1005700012B8EAE7F0E0108284E680937C0080E81D
:1005800080BF85E8808380818F7380838081806CC9
:1005900080830895ACE4B2E011961C921E92EDE3C4
:1005A000F2E0108213961C921E92129711821596F9
:1005B0001C921E921497128217961C921E921697E6
:1005C00013820895F89415BE1DBAE4DFE9DDCEDF8D
:1005D000F7DD78940895CF93C82F83E090E0B3DDE2
:1005E0008C2F807F886085B92B9820E1C202C001E2
:1005F0001124886085B92B98CF91089582E390E00B
:10060000C1DD88E285B92B98E6DF88E2E4DF8CE083
:10061000E2DF81E0E0DF83E090E0B4DD86E0DBCF85
:100620000895CF93DF93EB01D6DF8881882329F0EB
:10063000219695DD89918111FCCFDF91CF910895AD
:10064000CF93DF93EC019C0136952795369527953E
:1006500036952795A5ECB0E20E94AE0D9295829555
:100660008F7089279F70892748EE53E0849F9001FF
:10067000859F300D949F300D1124CE01821B930B6A
:100680009C013695279536952795ABE7B4E10E94F6
:10069000AE0D96958795805D62DD9E013695279516
:1006A00036952795ABE7B4E10E94AE0D96958795F8
:1006B00044E6489F9001499F300D1124CE01821BD2
:1006C000930B9C01ADECBCEC0E94AE0D969587950A
:1006D0009695879596958795805D41DD9E01ADEC59
:1006E000BCEC0E94AE0D969587959695879596954C
:1006F00087959C01220F331F880F991F880F991F20
:10070000880F991F820F931F9E01281B390BC90167
:10071000805D25DDDF91CF910895CF93DF93EC01CC
:100720009C01329522952F7023273F702327A7E441
:10073000B3E00E94AE0D9695879596958795969510
:10074000879540E157E2849F9001859F300D949FEB
:10075000300D1124CE01821B930B9C0136952795F9
:100760003695279536952795A5ECB0E20E94AE0DFB
:10077000929582958F7089279F708927805DEFDC25
:100780009E01369527953695279536952795A5ECA4
:10079000B0E20E94AE0D929582958F7089279F706E
:1007A000892748EE53E0849F9001859F300D949FE8
:1007B000300D1124CE01821B930B9C013695279599
:1007C00036952795ABE7B4E10E94AE0D96958795D7
:1007D000805DC5DC9E013695279536952795ABE75C
:1007E000B4E10E94AE0D9695879544E6489F90012E
:1007F000499F300D1124CE01821B930B9C01ADEC5F
:10080000BCEC0E94AE0D969587959695879596952A
:100810008795805DA4DC8EE2A2DC9E01ADECBCEC91
:100820000E94AE0D96958795969587959695879596
:100830009C01220F331F880F991F880F991F880F63
:10084000991F820F931F9E01281B390BC901805DE0
:1008500086DCDF91CF91089581E0BDDE82E090E0FB
:1008600091CC08950F931F93CF93DF938BE8B3DE62
:10087000C4E5D2E0688D798D80E090E00E94700C34
:1008800020E030E040E25FE30E942A0D20E030E00B
:1008900040E250E4C7D6F3D7CB0168EE73E00E9484
:1008A000920D04E610E0B8010E94920D80E3860FDD
:1008B00056DC888D998DBC0180E090E00E94700C20
:1008C00020E030E040E25FE30E942A0D20E030E0CB
:1008D00040E250E4A7D6D3D7CB01B8010E94920DD5
:1008E0000AE010E0B8010E94920D80E3860F37DC29
:1008F0008EE235DC888D998DBC0180E090E0F0D7E8
:1009000020E030E040E25FE30E942A0D20E030E08A
:1009100040E250E487D6B3D7CB01B8010E94920DD4
:10092000805D1DDC86E51BDCDF91CF911F910F916F
:10093000089594EA9093BC00ECEBF0E09081992349
:10094000ECF79091B900987F983039F065E271E04A
:1009500080EC67DE8091B90048C08093BB0084E8DA
:100960008093BC005898ECEBF0E080818823ECF792
:100970008091B900887F883139F060E071E080ECC7
:1009800050DE8091B90031C0589A6093BB0084E872
:100990008093BC00ECEBF0E080818823ECF7809141
:1009A000B900887F883239F061E171E080EC39DE8E
:1009B0008091B9001AC04093BB0084E88093BC00CA
:1009C000ECEBF0E080818823ECF78091B900887F20
:1009D000883239F061E171E080EC23DE8091B9006A
:1009E00004C084E98093BC00089584E98093BC002E
:1009F000089594EA9093BC00ECEBF0E09081992389
:100A0000ECF79091B900987F983041F065E271E081
:100A100080EC07DE8091B900887F71C08093BB00B5
:100A200084E88093BC00ECEBF0E080818823ECF755
:100A30008091B900887F883141F060E071E080ECFE
:100A4000F0DD8091B900887F5AC04093BB0084E8F4
:100A50008093BC00ECEBF0E080818823ECF7809180
:100A6000B900887F883241F061E171E080ECD9DD26
:100A70008091B900887F43C084EA8093BC00ECEB8E
:100A8000F0E080818823ECF78091B900887F803185
:100A900041F063E271E080ECC4DD8091B900887FB1
:100AA0002EC06093BB0084E88093BC00ECEBF0E0C8
:100AB00080818823ECF78091B900887F803441F0F1
:100AC00061E371E080ECADDD8091B900887F17C0F3
:100AD00084E88093BC00ECEBF0E080818823ECF7A5
:100AE0008091B900887F883541F062E471E080EC44
:100AF00098DD8091B900887F02C08091BB0094E9A5
:100B00009093BC000895CF92DF92EF92FF920F93E3
:100B10001F93CF93DF9343E06DE38CE36ADFC82F2D
:100B200081E090E010DBD0E0DC2FCC2744E06DE3E7
:100B30008CE35FDFC80FD11D81E090E004DB45E06E
:100B40006DE38CE356DF81E090E0FDDA46E06DE393
:100B50008CE34FDF81E090E0F6DA47E06DE38CE371
:100B600048DF082F81E090E0EEDA10E0102F002738
:100B700048E06DE38CE33DDF080F111D81E090E05C
:100B8000E2DABE01DD0F880B990BACD66B017C015C
:100B9000B801110F880B990BA5D6A7019601B6D500
:100BA00020EE3EE245E652E455D720E030E044E353
:100BB00053E439D520E030E040E251E44BD7609374
:100BC0008C0270938D0280938E0290938F02DF913E
:100BD000CF911F910F91FF90EF90DF90CF900895EC
:100BE000109289001092880010928B0010928A0057
:100BF0001092B40003DD66E571E080E812DD60E686
:100C000071E080EC0EDD2EDEFECF0F931F93CF93AD
:100C1000DF93EC018C01992324F400271127081B92
:100C2000190B60916C0270916D0280E090E058D6D3
:100C300020E030E040E25FE30DD720E030E040E22A
:100C400050E4F0D41CD66F3571050CF4C9DF2FEFDA
:100C5000209FC001219F900D112464E670E062D7AF
:100C60006F3F710519F014F06FEF70E0DD2334F47D
:100C70008091450280628093450205C080914502C3
:100C80008F7D809345027093890060938800DF9187
:100C9000CF911F910F9108950F931F93CF93DF93DF
:100CA000EC019C01992324F422273327281B390BBC
:100CB0004FEF429FC001439F900D112464E670E006
:100CC00031D78B016F3F710519F014F00FEF10E071
:100CD00060916C0270916D0280E090E001D620E09E
:100CE00030E040E25FE3B6D620E030E040E250E49E
:100CF00099D4C5D56F3571050CF472DFDD2334F45A
:100D00008091450280648093450205C08091450230
:100D10008F7B8093450210938B0000938A00DF91B4
:100D2000CF911F910F9108950F931F93CF93DF934E
:100D3000EC019C01992324F422273327281B390B2B
:100D40004FEF429FC001439F900D112464E670E075
:100D5000E9D68B016F3F710519F014F00FEF10E029
:100D600060916C0270916D0280E090E0B9D520E056
:100D700030E040E25FE36ED620E030E040E250E455
:100D800051D47DD56F3571050CF42ADFDD2334F4A1
:100D90008091450280688093450205C0809145029C
:100DA0008F77809345020093B400DF91CF911F911C
:100DB0000F9108950F931F93CF93DF938B01EA0157
:100DC00024DFC80169DFCE01AFDFDF91CF911F9132
:100DD0000F9108954F925F926F927F928F929F92A0
:100DE000AF92BF92CF92DF92EF92FF920F931F9339
:100DF000CF93DF93EC018B017A0185DE60918C0249
:100E000070918D0280918E0290918F0238D5CB0126
:100E10006AE070E087D6645B71096536710544F05D
:100E20004AE550E06AE570E08AE590E0C3DF40C043
:100E30006C398FEF780744F446EA5FEF66EA7FEF9C
:100E400086EA9FEFB7DF34C0072E000C880B990BA2
:100E500049D520E030E040E05FE3FCD54B015C0188
:100E6000B701FF0C880B990B3DD5A5019401DBD38D
:100E700006D56B017C01B801110F880B990B32D597
:100E80009B01AC01C501B401CED3F9D42B013C01C7
:100E9000BE01DD0F880B990B25D59B01AC01C50167
:100EA000B401C1D3ECD4DC01CB01A601B20182DFD5
:100EB000DF91CF911F910F91FF90EF90DF90CF9036
:100EC000BF90AF909F908F907F906F905F904F906A
:100ED00008958C30910508F084C09B01FC01EA5B09
:100EE000FF4F33C644275527461B570B60E070E081
:100EF000C90170CF0895CB0177230CF40196959525
:100F0000879544275527421B530BBC0163CF089597
:100F100044275527461B570B80E090E05BCF089590
:100F200088279927861B970B0AF401969595879534
:100F3000AC01B9014FCF089540E050E088279927D0
:100F4000821B930B47CF0895332314F46F5F7F4FB9
:100F500075956795AB0188279927821B930B3ACF2C
:100F60000895AB0160E070E088279927821B930BFE
:100F700031CF089588279927861B970B0AF401968D
:100F800095958795A901BC0125CF089566277727F8
:100F9000621B730BA90180E090E01CCF0895CB0188
:100FA00077230CF401969595879566277727621B22
:100FB000730BAC010FCF089566277727621B730B65
:100FC00040E050E0C90106CF089566277727621BED
:100FD000730B12F46F5F7F4F75956795AB01C90175
:100FE000F9CE08958C30910508F03DC0FC01EE5A11
:100FF000FF4FABC58091470290914802019721F4C1
:101000008BE090E066CF089580E090E062CF089595
:1010100084E090E05ECF089585E090E05ACF089597
:1010200086E090E056CF089587E090E052CF089593
:1010300088E090E04ECF089589E090E04ACF08958F
:1010400084E090E046CF089585E090E042CF089597
:1010500086E090E03ECF089587E090E03ACF089593
:1010600088E090E036CF0895EF92FF920F931F93A0
:10107000CF93DF93F1DB6EE671E080E8D2DA0F2EDA
:10108000FEE6EF2EF2E0FF2EF02D04E712E0EADBA1
:1010900080ECA1DAE70189919991D2DA80E25FD8F8
:1010A000C017D107C1F7329903C03299FECF04C0EF
:1010B00088EC90E067D8EBCFDF91CF911F910F9133
:1010C000FF90EF900895EF92FF920F931F93CF93AD
:1010D000DF93C2DB63E771E080E8A3DA0F2EF4E56B
:1010E000EF2EF2E0FF2EF02D04E612E089E873DA2D
:1010F000F70180819181A4DA80E231D8F7018481FF
:1011000095819EDA80E22BD880EC65DAE70188854C
:10111000998596DA80E223D82496C017D107B9F7CB
:10112000329903C03299FECF04C088EC90E02AD8EF
:10113000DDCFDF91CF911F910F91FF90EF90089538
:10114000EF92FF920F931F93CF93DF9385DB6BE7B3
:1011500071E080E866DA0F2EF4E5EF2EF2E0FF2E64
:10116000F02D04E612E089E836DAF70182819381F6
:1011700067DA80E20E94AF00F7018681978160DA2A
:1011800080E20E94AF0080EC26DAE7018A859B8529
:1011900057DA80E20E94AF002496C017D107B1F75A
:1011A000329903C03299FECF05C088EC90E00E94CE
:1011B000C200D9CFDF91CF911F910F91FF90EF9097
:1011C0000895EF92FF920F931F93CF93DF9344DB29
:1011D00064E871E080E825DA0F2EFBEDEF2EF2E0F7
:1011E000FF2EF02D03EE12E03DDB80ECF4D9E70199
:1011F0006991799180E090E073D32BE734E14EEA76
:101200005EE328D43CD3CB011BDA80E20E94AF001E
:10121000C017D10769F7329903C03299FECF05C0D4
:1012200088EC90E00E94C200DFCFDF91CF911F9148
:101230000F91FF90EF9008950FDB6AE871E080E86E
:10124000F0D961DC80ECC7D960918C0270918D027D
:1012500080918E0290918F0217D3CB015EDA329982
:1012600003C03299FECF089588EC90E00E94C2003E
:10127000E8CF90E08730910530F5FC01E25AFF4F4E
:1012800064C462E971E080ECCCC9089563EA71E05E
:1012900080ECC7C9089564EB71E080ECC2C9089581
:1012A00065EC71E080ECBDC9089566ED71E080ECFD
:1012B000B8C9089567EE71E080ECB3C9089568EF8E
:1012C00071E080ECAEC90895EF92FF920F931F93E7
:1012D000CF93DF931092DA021092D90210924B0250
:1012E00010924A02E4E5F2E0C0E9D2E02CE632E0F6
:1012F000DE0180819181813F910538F08281938167
:101300009695879580589F4F02C096958795119620
:101310009C938E9334961496E217F30751F70F2E91
:10132000F4EAEF2EF2E0FF2EF02D00E912E0F801D2
:101330006481758180819181680F791F80E090E0E0
:10134000CFD220E030E040E05FE384D32AE939E9FE
:1013500049E95FE37FD393D2F801738362830C5F23
:101360001F4F0E151F0519F700E912E0F801608103
:10137000718184899589680F791F80E090E0B0D2EF
:1013800020E030E040E05FE365D320E030E040EC77
:101390005FE360D374D2F801778B668B40914A0289
:1013A00050914B027091D9026091DA0280E090E096
:1013B000299139914217530718F4A901782F692F01
:1013C00001968C309105A1F750934B0240934A024D
:1013D0007093D9026093DA02DF91CF911F910F9140
:1013E000FF90EF90089538DA68E771E080E819D946
:1013F0006BDF38DA80ECEFD880914A0290914B0293
:101400001FD980E20E94AF008091D9029091DA0248
:1014100017D988EC90E00E94C200EACF1DDAE3DF22
:1014200040E050E060E070E080E090E0C3DC14DA7F
:10143000C1E0D0E00BED12E00F2EFAE02F2E312CA0
:10144000F02D42DF8091D9029091DA028730910528
:101450002CF0D0934802C09347020AC09C0122504E
:1014600031092430310520F41092480210924702CD
:1014700020914A0230914B022C3931050CF45FC0A7
:101480008230910520F08B30910509F058C0F801A9
:101490006281738180E090E023D22BE734E14EEA51
:1014A0005EE3D8D2ECD16B017C01F8018681978193
:1014B000BC0180E090E014D22BE734E14EEA5EE319
:1014C000C9D2DDD17601E61AF70A1DDB60918C02E4
:1014D00070918D0280918E0290918F02D0D1CB01BC
:1014E000B10120D3CB01845B9109BC016E197F0946
:1014F000072E000C880B990BF5D120E030E040E07E
:101500005FE3A8D26B017C0120E030E048EC52E4BC
:1015100089D0B5D12B013C01C701B601B0D14B0137
:101520005C0120E030E048EC52E4C701B6017BD01A
:10153000A6D1DC01CB01A201B4013CDC82CF28376B
:10154000310524F464E670E0C4DC7BCF60E570E034
:1015500049DD77CF37D852D869E072E080E861D8AA
:101560006AE172E080EC5DD83399FECF339BFECF09
:1015700040E062E08CE3DDD988EC90E00E94C2009C
:1015800048E560E08CE3D5D988EC90E00E94C20089
:1015900040E062E08CE3CDD988EC90E00E94C2008C
:1015A0005BD969E272E080E83CD86EE272E080ECE0
:1015B00038D888EC90E00E94C20054D932990FC00C
:1015C000329BFECF809146028F5F873018F4809364
:1015D000460202C010924602809146024ADE3399CA
:1015E000E8CF339BFECFE09146028E2F90E087300C
:1015F000910578F4FC01EB59FF4FA7C20FDF10DF14
:101600001BDE07C0DEDD05C09BDD03C05CDD01C065
:101610002BDD22D969E272E080E803D8809146028E
:1016200028DEC7CF5058BB27AA270ED0D2C1C3D1BE
:1016300030F0C8D120F031F49F3F11F41EF493C173
:101640000EF4E095E7FB89C1E92FD4D180F3BA17F6
:10165000620773078407950718F071F49EF5ECC1D3
:101660000EF4E0950B2EBA2FA02D0B01B9019001BD
:101670000C01CA01A0011124FF27591B99F0593F01
:1016800050F4503E68F11A16F040A22F232F342F49
:101690004427585FF3CF469537952795A795F04097
:1016A0005395C9F77EF41F16BA0B620B730B840BAC
:1016B000BAF09150A1F0FF0FBB1F661F771F881F64
:1016C000C2F70EC0BA0F621F731F841F48F48795BC
:1016D00077956795B795F7959E3F08F0B3CF9395AB
:1016E000880F08F09927EE0F97958795089563D195
:1016F00058F080E891E009F49EEF64D128F040E8CA
:1017000051E059F45EEF09C02EC196C1E92FE0788F
:1017100071D168F3092E052AC1F326173707480748
:10172000590738F00E2E07F8E02569F0E025E0644F
:101730000AC0EF6307F8009407FADB01B9019D01C5
:10174000DC01CA01AD01EF9341D043D10AD05F91D2
:10175000552331F02BED3FE049E450FD49EC63CFD8
:101760000895DF93DD27B92FBF7740E85FE31616B2
:10177000170648075B0710F4D92F65D19F938F9305
:101780007F936F93CAD1E8EDF0E0F0D022D12F9192
:101790003F914F915F916AD1DD2349F09058A2EAC1
:1017A0002AED3FE049EC5FE3D0785D274DDFDF9124
:1017B00010C108D140F0FFD030F021F45F3F19F0A4
:1017C000CCC051113AC1CFC015D198F39923C9F3B8
:1017D0005523B1F3951B550BBB27AA276217730737
:1017E000840738F09F5F5F4F220F331F441FAA1FEB
:1017F000A9F333D00E2E3AF0E0E830D091505040AB
:10180000E695001CCAF729D0FE2F27D0660F771F58
:10181000881FBB1F261737074807AB07B0E809F03A
:10182000BB0B802DBF01FF2793585F4F2AF09E3FCF
:10183000510568F092C001C15F3FECF3983EDCF3C4
:10184000869577956795B795F7959F5FC9F7880F48
:10185000911D9695879597F90895E1E0660F771F9A
:10186000881FBB1F621773078407BA0720F0621B2B
:10187000730B840BBA0BEE1F88F7E095089504D024
:101880006894B111DAC00895BDD088F09F5790F0E8
:10189000B92F9927B751A0F0D1F0660F771F881F95
:1018A000991F1AF0BA95C9F712C0B13081F0C4D0AF
:1018B000B1E00895C1C0672F782F8827B85F39F04D
:1018C000B93FCCF3869577956795B395D9F73EF4F4
:1018D00090958095709561957F4F8F4F9F4F08959C
:1018E000E89409C097FB3EF49095809570956195BA
:1018F0007F4F8F4F9F4F9923A9F0F92F96E9BB2770
:101900009395F695879577956795B795F111F8CFEB
:10191000FAF4BB0F11F460FF1BC06F5F7F4F8F4F56
:101920009F4F16C0882311F096E911C0772321F04C
:101930009EE8872F762F05C0662371F096E8862FE4
:1019400070E060E02AF09A95660F771F881FDAF73B
:10195000880F9695879597F9089597F99F6780E87E
:1019600070E060E008959FEF80EC0895DF93CF93DF
:101970001F930F93FF92EF92DF927B018C0168948B
:1019800005C0DA2EEF0172D0FE01E894A5912591F1
:10199000359145915591AEF3EF0156DEFE01970169
:1019A000A801DA9479F7DF90EF90FF900F911F91E3
:1019B000CF91DF91089500240A9416161706180691
:1019C0000906089500240A94121613061406050643
:1019D0000895092E0394000C11F4882352F0BB0FD4
:1019E00040F4BF2B11F460FF04C06F5F7F4F8F4F37
:1019F0009F4F089557FD9058440F551F59F05F3F72
:101A000071F04795880F97FB991F61F09F3F79F020
:101A100087950895121613061406551FF2CF4695A2
:101A2000F1DF08C0161617061806991FF1CF869524
:101A30007105610508940895E894BB276627772708
:101A4000CB0197F908959B01AC0160E070E080E85C
:101A50009FE366C00BD0BDCFAEDF28F0B3DF18F038
:101A6000952309F07ACF7FCF1124E7CFC3DFA0F30E
:101A7000959FD1F3950F50E0551F629FF001729F23
:101A8000BB27F00DB11D639FAA27F00DB11DAA1F42
:101A9000649F6627B00DA11D661F829F2227B00D8F
:101AA000A11D621F739FB00DA11D621F839FA00D1A
:101AB000611D221F749F3327A00D611D231F849F6A
:101AC000600D211D822F762F6A2F11249F575040C1
:101AD0008AF0E1F088234AF0EE0FFF1FBB1F661F5C
:101AE000771F881F91505040A9F79E3F510570F015
:101AF00034CFA3CF5F3FECF3983EDCF38695779528
:101B00006795B795F795E7959F5FC1F7FE2B880F0F
:101B1000911D9695879597F908959B01AC019ACFF1
:101B200053DE57CF97FB072E16F4009406D077FDAF
:101B300008D023D007FC05D03EF4909581959F4FA7
:101B40000895709561957F4F0895EE0FFF1F002453
:101B5000001C0BBE0790F691E02D0994A29FB001E6
:101B6000B39FC001A39F700D811D1124911DB29FD1
:101B7000700D811D1124911D0895AA1BBB1B51E1FD
:101B800007C0AA1FBB1FA617B70710F0A61BB70BED
:101B9000881F991F5A95A9F780959095BC01CD0192
:061BA0000895F894FFCF48
:101BA6004D545F534C415F41434B204552524F5277
:101BB600004D545F444154415F41434B20455252CE
:101BC6004F520052455354415254204552524F529F
:101BD600004D525F534C415F41434B204552524F9B
:101BE60052004D525F444154415F4E4F41434B209A
:101BF6004552524F52002D5741524E494E472D00E5
:101C060020204C4F572042415454455259004C49CC
:101C16004E45004C4F4E472049520053484F5254B0
:101C260020495200554C54524100434F4D504153A8
:101C3600530052554E2050524F4752414D203120AD
:101C460020200052554E2050524F4752414D2032CF
:101C5600202020005649455720434F4D50415353AD
:101C660020202020005649455720554C54524120EB
:101C7600202020202000564945572053484F5254D3
:101C86002049522020200056494557204C4F4E47A8
:101C9600204952202020200056494557204C494EC5
:101CA600452053454E534F520052434B4120534F0C
:101CB600434345522056312E300020524F424F4367
:101CC6005550204B4F5245410052434B410052550F
:0C1CD6004E2050524F4752414D2031002B
:00000001FF
